{
  "contractName": "EncryptIPFS",
  "abi": [
    {
      "constant": true,
      "inputs": [],
      "name": "reportCount",
      "outputs": [
        {
          "name": "",
          "type": "uint256"
        }
      ],
      "payable": false,
      "stateMutability": "view",
      "type": "function",
      "signature": "0x185c6f84"
    },
    {
      "constant": true,
      "inputs": [
        {
          "name": "",
          "type": "uint256"
        }
      ],
      "name": "reports",
      "outputs": [
        {
          "name": "id",
          "type": "uint256"
        },
        {
          "name": "ipfsHash",
          "type": "string"
        },
        {
          "name": "author",
          "type": "address"
        }
      ],
      "payable": false,
      "stateMutability": "view",
      "type": "function",
      "signature": "0xc942adf7"
    },
    {
      "anonymous": false,
      "inputs": [
        {
          "indexed": false,
          "name": "id",
          "type": "uint256"
        },
        {
          "indexed": false,
          "name": "ipfsHash",
          "type": "string"
        },
        {
          "indexed": false,
          "name": "author",
          "type": "address"
        }
      ],
      "name": "ReportUploaded",
      "type": "event",
      "signature": "0xcae5ad66a0802c867b3f3d6c69e6f849a740ec2325630fa5686f5d8ea6853832"
    },
    {
      "constant": false,
      "inputs": [
        {
          "name": "x",
          "type": "string"
        }
      ],
      "name": "uploadReport",
      "outputs": [],
      "payable": false,
      "stateMutability": "nonpayable",
      "type": "function",
      "signature": "0x684b0834"
    }
  ],
  "bytecode": "0x60806040526000805534801561001457600080fd5b50610616806100246000396000f3fe608060405260043610610057576000357c0100000000000000000000000000000000000000000000000000000000900463ffffffff168063185c6f841461005c578063684b083414610087578063c942adf71461014f575b600080fd5b34801561006857600080fd5b5061007161023d565b6040518082815260200191505060405180910390f35b34801561009357600080fd5b5061014d600480360360208110156100aa57600080fd5b81019080803590602001906401000000008111156100c757600080fd5b8201836020820111156100d957600080fd5b803590602001918460018302840111640100000000831117156100fb57600080fd5b91908080601f016020809104026020016040519081016040528093929190818152602001838380828437600081840152601f19601f820116905080830192505050505050509192919290505050610243565b005b34801561015b57600080fd5b506101886004803603602081101561017257600080fd5b8101908080359060200190929190505050610463565b60405180848152602001806020018373ffffffffffffffffffffffffffffffffffffffff1673ffffffffffffffffffffffffffffffffffffffff168152602001828103825284818151815260200191508051906020019080838360005b838110156102005780820151818401526020810190506101e5565b50505050905090810190601f16801561022d5780820380516001836020036101000a031916815260200191505b5094505050505060405180910390f35b60005481565b600081511115156102bc576040517f08c379a00000000000000000000000000000000000000000000000000000000081526004018080602001828103825260168152602001807f456d7074792068617368206e6f7420616c6c6f7765640000000000000000000081525060200191505060405180910390fd5b600080815480929190600101919050555060606040519081016040528060005481526020018281526020013373ffffffffffffffffffffffffffffffffffffffff16815250600160008054815260200190815260200160002060008201518160000155602082015181600101908051906020019061033b929190610545565b5060408201518160020160006101000a81548173ffffffffffffffffffffffffffffffffffffffff021916908373ffffffffffffffffffffffffffffffffffffffff1602179055509050507fcae5ad66a0802c867b3f3d6c69e6f849a740ec2325630fa5686f5d8ea6853832600054823360405180848152602001806020018373ffffffffffffffffffffffffffffffffffffffff1673ffffffffffffffffffffffffffffffffffffffff168152602001828103825284818151815260200191508051906020019080838360005b83811015610424578082015181840152602081019050610409565b50505050905090810190601f1680156104515780820380516001836020036101000a031916815260200191505b5094505050505060405180910390a150565b6001602052806000526040600020600091509050806000015490806001018054600181600116156101000203166002900480601f0160208091040260200160405190810160405280929190818152602001828054600181600116156101000203166002900480156105155780601f106104ea57610100808354040283529160200191610515565b820191906000526020600020905b8154815290600101906020018083116104f857829003601f168201915b5050505050908060020160009054906101000a900473ffffffffffffffffffffffffffffffffffffffff16905083565b828054600181600116156101000203166002900490600052602060002090601f016020900481019282601f1061058657805160ff19168380011785556105b4565b828001600101855582156105b4579182015b828111156105b3578251825591602001919060010190610598565b5b5090506105c191906105c5565b5090565b6105e791905b808211156105e35760008160009055506001016105cb565b5090565b9056fea165627a7a723058206f7e753055bc064595b58abcad6c0a9427f53b50ada37a7ed14fb595c30582110029",
  "source": "pragma solidity ^0.5.0;\n\ncontract EncryptIPFS {\n\n  uint public reportCount = 0;\n  struct Report {\n        uint id;\n        string ipfsHash;\n        address author;\n    }\n  mapping(uint => Report) public reports;\n  event ReportUploaded(\n        uint id,\n        string ipfsHash,\n        address author\n    );\n  function uploadReport(string memory x) public {\n      require(bytes(x).length > 0, \"Empty hash not allowed\");\n      reportCount ++;\n      reports[reportCount] = Report(reportCount, x, msg.sender);\n      emit ReportUploaded(reportCount, x, msg.sender);\n  }\n\n}",
  "sourcePath": "C:/Users/hp/Desktop/Encrypting pdf on ipfs/src/contracts/EncryptIPFS.sol",
  "compiler": {
    "name": "solc",
    "version": "0.5.0+commit.1d4f565a.Emscripten.clang"
  },
  "schemaVersion": "3.0.1",
  "updatedAt": "2020-01-10T03:00:05.104Z",
  "devdoc": {
    "methods": {}
  },
  "userdoc": {
    "methods": {}
  }
}